:020000020000FC
:100000000C9406000C94B9010C9436020FEF0DBF4E
:1000100001E20EBF0FEF00BB01B9002701BB02B91F
:1000200008E323D33CD357D308E31FD338D34AD3B1
:1000300008E31BD334D308E318D331D308E015D336
:100040002ED301E012D32BD306E00FD328D30EE03A
:100050000CD325D301E009D322D300E211D31FD35F
:1000600003E50ED31CD30AE30BD319D300E208D364
:1000700016D300E205D313D307E502D310D301E36F
:10008000FFD20DD300E2FCD20AD307E5F9D207D3A1
:1000900002E3F6D204D300E2F3D201D307E5F0D2B3
:1000A000FED203E3EDD2FBD200E2EAD2F8D207E5BA
:1000B000E7D2F5D204E3E4D2F2D200ECD6D2EFD20A
:1000C00000E2DED2ECD200E2DBD2E9D200E2D8D20A
:1000D000E6D200E2D5D2E3D200E2D2D2E0D200E210
:1000E000CFD2DDD200E3CCD2DAD200E2C9D2D7D26D
:1000F00000E2C6D2D4D200E3C3D2D1D200E2C0D251
:10010000CED200E2BDD2CBD200E3BAD2C8D200E256
:10011000B7D2C5D200E2B4D2C2D200E3B1D2BFD2CC
:1001200020EF20930A01BB24CC24DD24EE241127E8
:10013000FF2422272AB92BB92FE0209369002DB381
:1001400023602DBB2FEF209301012DB920E02093D8
:100150009A0020939C00209398002093B4002227BB
:1001600020939B0020939D002093990021E02093F1
:10017000910029EA2093900021E02093B10021E230
:100180002093B000789400C05FEE77277430E1F3DD
:1001900050930B012FEF2A95F1F7209109012F7051
:1001A0002F3089F041E06627643069F0322F342324
:1001B00021F06395440F0C94D400209109012F7015
:1001C0002F3029F0FACF550F73950C94C600733079
:1001D000D1F01130C9F2262F220F260F270F2F5FE3
:1001E00031E0213091F02230B1F02330D1F02430D1
:1001F000F1F0253011F1263031F1273051F128305E
:1002000071F10C94C4000C94350120E0B20609F0A1
:10021000B31A0C94A50223E0B20609F0B30E0C94B5
:10022000A50220E0C20609F0C31A0C94A50223E03F
:10023000C20609F0C30E0C94A50220E0D20609F014
:10024000D31A0C94A50223E0D20609F0D30E0C9425
:10025000A50220E0E20609F0E31A0C94A50223E0CF
:10026000E20609F0E30E0C94A502113011F00C9493
:10027000C400603021F0613029F00C94C40020E308
:100280000C94460123E363E00C94460101E0EDD1B8
:1002900006D200E2F5D103D203E4F2D100D20AE3A0
:1002A000EFD1FDD100E2ECD1FAD100E2E9D1F7D1F2
:1002B00007E5E6D1F4D101E3E3D1F1D100E2E0D1E9
:1002C000EED107E5DDD1EBD102E3DAD1E8D100E2EE
:1002D000D7D1E5D107E5D4D1E2D103E3D1D1DFD144
:1002E00000E2CED1DCD107E5CBD1D9D104E3C8D12E
:1002F000D6D100ECBAD1D3D100E2C2D1D0D100E244
:10030000BFD1CDD100E2BCD1CAD100E2B9D1C7D1B1
:1003100000E2B6D1C4D100E2B3D1C1D1022FB0D135
:10032000BED100E2ADD1BBD100E2AAD1B8D1022F3B
:10033000A7D1B5D100E2A4D1B2D100E2A1D1AFD111
:10034000022F9ED1ACD100E29BD1A9D100E298D17D
:10035000A6D1022F95D1A3D12EE1629F202D20930B
:100360009A0020939C00209398002093B4000C9452
:10037000C40031E0F30E01E078D191D100E280D1E8
:100380008ED101E27DD18BD101E27AD188D100E218
:1003900077D185D100E274D182D107E571D17FD1C7
:1003A00001E36ED17CD100E26BD179D107E568D150
:1003B00076D102E365D173D100E262D170D107E555
:1003C0005FD16DD103E35CD16AD100E259D167D12D
:1003D00007E556D164D104E353D161D100EC45D196
:1003E0005ED100E24DD15BD100E24AD158D100E2AA
:1003F00047D155D100E244D152D100E241D14FD191
:1004000000E23ED14CD100E33BD149D100E238D1EA
:1004100046D100E235D143D100E332D140D100E2F0
:100420002FD13DD100E22CD13AD100E329D137D1EF
:1004300000E226D134D100E223D131D100E320D132
:100440002ED120E020939A0020939C0020939800C6
:100450002093B4002DB320702DBB789432E0F306C6
:1004600020F030E0F32E0C940600F8CF113011F498
:100470000C940600789410E301E0F7D010D100E26C
:10048000FFD00DD103E4FCD00AD10AE3F9D007D1A3
:1004900000E2F6D004D100E2F3D001D107E5F0D0BC
:1004A000FED001E3EDD0FBD000E2EAD0F8D007E5C2
:1004B000E7D0F5D002E3E4D0F2D000E2E1D0EFD013
:1004C00007E5DED0ECD003E3DBD0E9D000E2D8D002
:1004D000E6D007E5D5D0E3D004E3D2D0E0D000ECFD
:1004E000C4D0DDD000E2CCD0DAD000E2C9D0D7D081
:1004F00000E2C6D0D4D000E2C3D0D1D000E2C0D058
:10050000CED000E2BDD0CBD0012FBAD0C8D000E20F
:10051000B7D0C5D000E2B4D0C2D0012FB1D0BFD087
:1005200000E2AED0BCD000E2ABD0B9D0012FA8D051
:10053000B6D000E2A5D0B3D000E2A2D0B0D0012F57
:100540009FD0ADD011E00C94C40001E08ED0A7D0B4
:1005500000E296D0A4D00CE493D0A1D00AE390D0CE
:100560009ED000E28DD09BD000E28AD098D007E5E3
:1005700087D095D001E384D092D000E281D08FD093
:1005800007E57ED08CD002E37BD089D000E278D022
:1005900086D007E575D083D003E372D080D000E227
:1005A0006FD07DD007E56CD07AD004E369D077D0E6
:1005B00000EC5BD074D000E263D071D000E260D078
:1005C0006ED000E25DD06BD000E25AD068D000E27D
:1005D00057D065D000E254D062D020E32B0D022F1B
:1005E0004FD05DD000E24CD05AD000E249D057D075
:1005F00020E32C0D022F44D052D000E241D04FD046
:1006000000E23ED04CD020E32D0D022F39D047D050
:1006100000E236D044D000E233D041D020E32E0DAA
:10062000022F2ED03CD020E533EC64E1002799273F
:1006300088278217930718F401960000FACF0395D4
:100640000617A8F32EE1B29E302D30939A00C29E79
:10065000302D30939C00D29E302D30939800E29E36
:10066000302D3093B4000C94C40001BB0000169AE6
:10067000000000000000169800000000000008952F
:1006800001BB179A000000000000169A000000004D
:1006900000001698000000000000179808950F93BE
:1006A000002700BB01BB159A0000169A000000004D
:1006B00000000FB1169807FDF7CF15980FEF00BB9C
:1006C0000F910895AF93BF93AFE0BCE91197F1F795
:1006D000BF91AF910895F6DFF5DFF4DFF3DFF2DFCE
:0206E00008957B
:00000001FF
